{
  "contractName": "DecentralBank",
  "abi": [
    {
      "inputs": [
        {
          "internalType": "contract RWD",
          "name": "_rwd",
          "type": "address"
        },
        {
          "internalType": "contract Tether",
          "name": "_tether",
          "type": "address"
        }
      ],
      "stateMutability": "nonpayable",
      "type": "constructor"
    },
    {
      "inputs": [
        {
          "internalType": "address",
          "name": "",
          "type": "address"
        }
      ],
      "name": "hasStaked",
      "outputs": [
        {
          "internalType": "bool",
          "name": "",
          "type": "bool"
        }
      ],
      "stateMutability": "view",
      "type": "function",
      "constant": true
    },
    {
      "inputs": [
        {
          "internalType": "address",
          "name": "",
          "type": "address"
        }
      ],
      "name": "isStaking",
      "outputs": [
        {
          "internalType": "bool",
          "name": "",
          "type": "bool"
        }
      ],
      "stateMutability": "view",
      "type": "function",
      "constant": true
    },
    {
      "inputs": [],
      "name": "name",
      "outputs": [
        {
          "internalType": "string",
          "name": "",
          "type": "string"
        }
      ],
      "stateMutability": "view",
      "type": "function",
      "constant": true
    },
    {
      "inputs": [],
      "name": "owner",
      "outputs": [
        {
          "internalType": "address",
          "name": "",
          "type": "address"
        }
      ],
      "stateMutability": "view",
      "type": "function",
      "constant": true
    },
    {
      "inputs": [],
      "name": "rwd",
      "outputs": [
        {
          "internalType": "contract RWD",
          "name": "",
          "type": "address"
        }
      ],
      "stateMutability": "view",
      "type": "function",
      "constant": true
    },
    {
      "inputs": [
        {
          "internalType": "uint256",
          "name": "",
          "type": "uint256"
        }
      ],
      "name": "stakers",
      "outputs": [
        {
          "internalType": "address",
          "name": "",
          "type": "address"
        }
      ],
      "stateMutability": "view",
      "type": "function",
      "constant": true
    },
    {
      "inputs": [
        {
          "internalType": "address",
          "name": "",
          "type": "address"
        }
      ],
      "name": "stakingBalance",
      "outputs": [
        {
          "internalType": "uint256",
          "name": "",
          "type": "uint256"
        }
      ],
      "stateMutability": "view",
      "type": "function",
      "constant": true
    },
    {
      "inputs": [],
      "name": "tether",
      "outputs": [
        {
          "internalType": "contract Tether",
          "name": "",
          "type": "address"
        }
      ],
      "stateMutability": "view",
      "type": "function",
      "constant": true
    },
    {
      "inputs": [
        {
          "internalType": "uint256",
          "name": "_amount",
          "type": "uint256"
        }
      ],
      "name": "depositTokens",
      "outputs": [],
      "stateMutability": "nonpayable",
      "type": "function"
    },
    {
      "inputs": [],
      "name": "unstakeTokens",
      "outputs": [],
      "stateMutability": "nonpayable",
      "type": "function"
    },
    {
      "inputs": [],
      "name": "issueTokens",
      "outputs": [],
      "stateMutability": "nonpayable",
      "type": "function"
    }
  ],
  "bytecode": "0x60806040526040518060400160405280600e81526020017f446563656e7472616c2042616e6b000000000000000000000000000000000000815250600090805190602001906200005192919062000150565b503480156200005f57600080fd5b5060405162001490380380620014908339818101604052810190620000859190620002c3565b81600360006101000a81548173ffffffffffffffffffffffffffffffffffffffff021916908373ffffffffffffffffffffffffffffffffffffffff16021790555080600260006101000a81548173ffffffffffffffffffffffffffffffffffffffff021916908373ffffffffffffffffffffffffffffffffffffffff16021790555033600160006101000a81548173ffffffffffffffffffffffffffffffffffffffff021916908373ffffffffffffffffffffffffffffffffffffffff16021790555050506200036e565b8280546200015e9062000339565b90600052602060002090601f016020900481019282620001825760008555620001ce565b82601f106200019d57805160ff1916838001178555620001ce565b82800160010185558215620001ce579182015b82811115620001cd578251825591602001919060010190620001b0565b5b509050620001dd9190620001e1565b5090565b5b80821115620001fc576000816000905550600101620001e2565b5090565b600080fd5b600073ffffffffffffffffffffffffffffffffffffffff82169050919050565b6000620002328262000205565b9050919050565b6000620002468262000225565b9050919050565b620002588162000239565b81146200026457600080fd5b50565b60008151905062000278816200024d565b92915050565b60006200028b8262000225565b9050919050565b6200029d816200027e565b8114620002a957600080fd5b50565b600081519050620002bd8162000292565b92915050565b60008060408385031215620002dd57620002dc62000200565b5b6000620002ed8582860162000267565b92505060206200030085828601620002ac565b9150509250929050565b7f4e487b7100000000000000000000000000000000000000000000000000000000600052602260045260246000fd5b600060028204905060018216806200035257607f821691505b6020821081036200036857620003676200030a565b5b50919050565b611112806200037e6000396000f3fe608060405234801561001057600080fd5b50600436106100a95760003560e01c80636f49712b116100715780636f49712b146101425780638da5cb5b14610172578063a5ce413b14610190578063c93c8f341461019a578063dd49756e146101ca578063fd5e6dd1146101e6576100a9565b806306fdde03146100ae5780631a8972d3146100cc57806345bc78ab146100ea5780635efc071a1461011a57806360ab585214610138575b600080fd5b6100b6610216565b6040516100c39190610aa8565b60405180910390f35b6100d46102a4565b6040516100e19190610b49565b60405180910390f35b61010460048036038101906100ff9190610ba7565b6102ca565b6040516101119190610bed565b60405180910390f35b6101226102e2565b60405161012f9190610c29565b60405180910390f35b610140610308565b005b61015c60048036038101906101579190610ba7565b6104fe565b6040516101699190610c5f565b60405180910390f35b61017a61051e565b6040516101879190610c89565b60405180910390f35b610198610544565b005b6101b460048036038101906101af9190610ba7565b61070c565b6040516101c19190610c5f565b60405180910390f35b6101e460048036038101906101df9190610cd0565b61072c565b005b61020060048036038101906101fb9190610cd0565b6109d0565b60405161020d9190610c89565b60405180910390f35b6000805461022390610d2c565b80601f016020809104026020016040519081016040528092919081815260200182805461024f90610d2c565b801561029c5780601f106102715761010080835404028352916020019161029c565b820191906000526020600020905b81548152906001019060200180831161027f57829003601f168201915b505050505081565b600360009054906101000a900473ffffffffffffffffffffffffffffffffffffffff1681565b60056020528060005260406000206000915090505481565b600260009054906101000a900473ffffffffffffffffffffffffffffffffffffffff1681565b600160009054906101000a900473ffffffffffffffffffffffffffffffffffffffff1673ffffffffffffffffffffffffffffffffffffffff163373ffffffffffffffffffffffffffffffffffffffff1614610398576040517f08c379a000000000000000000000000000000000000000000000000000000000815260040161038f90610dcf565b60405180910390fd5b60005b6004805490508110156104fb576000600482815481106103be576103bd610def565b5b9060005260206000200160009054906101000a900473ffffffffffffffffffffffffffffffffffffffff16905060006009600560008473ffffffffffffffffffffffffffffffffffffffff1673ffffffffffffffffffffffffffffffffffffffff168152602001908152602001600020546104399190610e7c565b905060008111156104e657600360009054906101000a900473ffffffffffffffffffffffffffffffffffffffff1673ffffffffffffffffffffffffffffffffffffffff1663a9059cbb83836040518363ffffffff1660e01b81526004016104a1929190610ead565b6020604051808303816000875af11580156104c0573d6000803e3d6000fd5b505050506040513d601f19601f820116820180604052508101906104e49190610f02565b505b505080806104f390610f2f565b91505061039b565b50565b60076020528060005260406000206000915054906101000a900460ff1681565b600160009054906101000a900473ffffffffffffffffffffffffffffffffffffffff1681565b6000600560003373ffffffffffffffffffffffffffffffffffffffff1673ffffffffffffffffffffffffffffffffffffffff168152602001908152602001600020549050600081116105cb576040517f08c379a00000000000000000000000000000000000000000000000000000000081526004016105c290610fc3565b60405180910390fd5b600260009054906101000a900473ffffffffffffffffffffffffffffffffffffffff1673ffffffffffffffffffffffffffffffffffffffff1663a9059cbb33836040518363ffffffff1660e01b8152600401610628929190610ead565b6020604051808303816000875af1158015610647573d6000803e3d6000fd5b505050506040513d601f19601f8201168201806040525081019061066b9190610f02565b506000600560003373ffffffffffffffffffffffffffffffffffffffff1673ffffffffffffffffffffffffffffffffffffffff168152602001908152602001600020819055506000600760003373ffffffffffffffffffffffffffffffffffffffff1673ffffffffffffffffffffffffffffffffffffffff16815260200190815260200160002060006101000a81548160ff02191690831515021790555050565b60066020528060005260406000206000915054906101000a900460ff1681565b6000811161076f576040517f08c379a00000000000000000000000000000000000000000000000000000000081526004016107669061102f565b60405180910390fd5b600260009054906101000a900473ffffffffffffffffffffffffffffffffffffffff1673ffffffffffffffffffffffffffffffffffffffff166323b872dd3330846040518463ffffffff1660e01b81526004016107ce9392919061104f565b6020604051808303816000875af11580156107ed573d6000803e3d6000fd5b505050506040513d601f19601f820116820180604052508101906108119190610f02565b5080600560003373ffffffffffffffffffffffffffffffffffffffff1673ffffffffffffffffffffffffffffffffffffffff16815260200190815260200160002060008282546108619190611086565b92505081905550600660003373ffffffffffffffffffffffffffffffffffffffff1673ffffffffffffffffffffffffffffffffffffffff16815260200190815260200160002060009054906101000a900460ff1661091d576004339080600181540180825580915050600190039060005260206000200160009091909190916101000a81548173ffffffffffffffffffffffffffffffffffffffff021916908373ffffffffffffffffffffffffffffffffffffffff1602179055505b6001600760003373ffffffffffffffffffffffffffffffffffffffff1673ffffffffffffffffffffffffffffffffffffffff16815260200190815260200160002060006101000a81548160ff0219169083151502179055506001600660003373ffffffffffffffffffffffffffffffffffffffff1673ffffffffffffffffffffffffffffffffffffffff16815260200190815260200160002060006101000a81548160ff02191690831515021790555050565b600481815481106109e057600080fd5b906000526020600020016000915054906101000a900473ffffffffffffffffffffffffffffffffffffffff1681565b600081519050919050565b600082825260208201905092915050565b60005b83811015610a49578082015181840152602081019050610a2e565b83811115610a58576000848401525b50505050565b6000601f19601f8301169050919050565b6000610a7a82610a0f565b610a848185610a1a565b9350610a94818560208601610a2b565b610a9d81610a5e565b840191505092915050565b60006020820190508181036000830152610ac28184610a6f565b905092915050565b600073ffffffffffffffffffffffffffffffffffffffff82169050919050565b6000819050919050565b6000610b0f610b0a610b0584610aca565b610aea565b610aca565b9050919050565b6000610b2182610af4565b9050919050565b6000610b3382610b16565b9050919050565b610b4381610b28565b82525050565b6000602082019050610b5e6000830184610b3a565b92915050565b600080fd5b6000610b7482610aca565b9050919050565b610b8481610b69565b8114610b8f57600080fd5b50565b600081359050610ba181610b7b565b92915050565b600060208284031215610bbd57610bbc610b64565b5b6000610bcb84828501610b92565b91505092915050565b6000819050919050565b610be781610bd4565b82525050565b6000602082019050610c026000830184610bde565b92915050565b6000610c1382610b16565b9050919050565b610c2381610c08565b82525050565b6000602082019050610c3e6000830184610c1a565b92915050565b60008115159050919050565b610c5981610c44565b82525050565b6000602082019050610c746000830184610c50565b92915050565b610c8381610b69565b82525050565b6000602082019050610c9e6000830184610c7a565b92915050565b610cad81610bd4565b8114610cb857600080fd5b50565b600081359050610cca81610ca4565b92915050565b600060208284031215610ce657610ce5610b64565b5b6000610cf484828501610cbb565b91505092915050565b7f4e487b7100000000000000000000000000000000000000000000000000000000600052602260045260246000fd5b60006002820490506001821680610d4457607f821691505b602082108103610d5757610d56610cfd565b5b50919050565b7f48617275732050656d696c696b207967206461706174206d656d626572696b6160008201527f6e20686164696168000000000000000000000000000000000000000000000000602082015250565b6000610db9602883610a1a565b9150610dc482610d5d565b604082019050919050565b60006020820190508181036000830152610de881610dac565b9050919050565b7f4e487b7100000000000000000000000000000000000000000000000000000000600052603260045260246000fd5b7f4e487b7100000000000000000000000000000000000000000000000000000000600052601260045260246000fd5b7f4e487b7100000000000000000000000000000000000000000000000000000000600052601160045260246000fd5b6000610e8782610bd4565b9150610e9283610bd4565b925082610ea257610ea1610e1e565b5b828204905092915050565b6000604082019050610ec26000830185610c7a565b610ecf6020830184610bde565b9392505050565b610edf81610c44565b8114610eea57600080fd5b50565b600081519050610efc81610ed6565b92915050565b600060208284031215610f1857610f17610b64565b5b6000610f2684828501610eed565b91505092915050565b6000610f3a82610bd4565b91507fffffffffffffffffffffffffffffffffffffffffffffffffffffffffffffffff8203610f6c57610f6b610e4d565b5b600182019050919050565b7f73616c646f20746964616b20626f6c6568206b7572616e672064617269203000600082015250565b6000610fad601f83610a1a565b9150610fb882610f77565b602082019050919050565b60006020820190508181036000830152610fdc81610fa0565b9050919050565b7f4a756d6c6168206861727573206c656269682064617269203000000000000000600082015250565b6000611019601983610a1a565b915061102482610fe3565b602082019050919050565b600060208201905081810360008301526110488161100c565b9050919050565b60006060820190506110646000830186610c7a565b6110716020830185610c7a565b61107e6040830184610bde565b949350505050565b600061109182610bd4565b915061109c83610bd4565b9250827fffffffffffffffffffffffffffffffffffffffffffffffffffffffffffffffff038211156110d1576110d0610e4d565b5b82820190509291505056fea2646970667358221220f352b536f90f572cfca51086a7798f27fc0d4540535203b184a32c83e3952ec964736f6c634300080e0033",
  "immutableReferences": {},
  "source": "// SPDX-License-Identifier: MIT\r\npragma solidity >=0.4.22 <0.9.0;\r\n\r\nimport \"./RWD.sol\";\r\nimport \"./Tether.sol\";\r\n\r\ncontract DecentralBank {\r\n    string public name = \"Decentral Bank\";\r\n    address public owner;\r\n    Tether public tether;\r\n    RWD public rwd;\r\n\r\n    address[] public stakers;\r\n\r\n    mapping(address => uint256) public stakingBalance;\r\n    mapping(address => bool) public hasStaked;\r\n    mapping(address => bool) public isStaking;\r\n\r\n    constructor(RWD _rwd, Tether _tether) {\r\n        rwd = _rwd;\r\n        tether = _tether;\r\n        owner = msg.sender;\r\n    }\r\n\r\n    // staking function\r\n    function depositTokens(uint256 _amount) public {\r\n        require(_amount > 0, \"Jumlah harus lebih dari 0\");\r\n\r\n        // transfer tether token to this contract address for staking\r\n        tether.transferFrom(msg.sender, address(this), _amount);\r\n\r\n        // update staking balance\r\n        stakingBalance[msg.sender] += _amount;\r\n\r\n        if (!hasStaked[msg.sender]) {\r\n            stakers.push(msg.sender);\r\n        }\r\n\r\n        //update staking balance boolean\r\n        isStaking[msg.sender] = true;\r\n        hasStaked[msg.sender] = true;\r\n    }\r\n\r\n    // unstaking function\r\n    function unstakeTokens() public {\r\n        uint256 balance = stakingBalance[msg.sender];\r\n        require(balance > 0, \"saldo tidak boleh kurang dari 0\");\r\n\r\n        // transfer token to specified contract address from bank\r\n        tether.transfer(msg.sender, balance);\r\n\r\n        //update staking balance\r\n        stakingBalance[msg.sender] = 0;\r\n\r\n        //update staking status\r\n        isStaking[msg.sender] = false;\r\n    }\r\n\r\n    //pemberian rewards\r\n    function issueTokens() public {\r\n        require(\r\n            msg.sender == owner,\r\n            \"Harus Pemilik yg dapat memberikan hadiah\"\r\n        );\r\n        for (uint256 i = 0; i < stakers.length; i++) {\r\n            address recepient = stakers[i];\r\n            uint256 balance = stakingBalance[recepient] / 9;\r\n            if (balance > 0) {\r\n                rwd.transfer(recepient, balance);\r\n            }\r\n        }\r\n    }\r\n}\r\n",
  "sourcePath": "F:\\coding\\staking\\src\\contracts\\DecentralBank.sol",
  "compiler": {
    "name": "solc",
    "version": "0.8.14+commit.80d49f37.Emscripten.clang"
  },
  "schemaVersion": "3.4.7",
  "updatedAt": "2022-06-16T17:07:52.818Z",
  "networkType": "ethereum",
  "devdoc": {
    "kind": "dev",
    "methods": {},
    "version": 1
  },
  "userdoc": {
    "kind": "user",
    "methods": {},
    "version": 1
  }
}